{
  "contractName": "Coinflip",
  "abi": [
    {
      "anonymous": false,
      "inputs": [
        {
          "indexed": false,
          "internalType": "string",
          "name": "description",
          "type": "string"
        }
      ],
      "name": "LogNewProvableQuery",
      "type": "event"
    },
    {
      "anonymous": false,
      "inputs": [
        {
          "indexed": false,
          "internalType": "address",
          "name": "",
          "type": "address"
        },
        {
          "indexed": false,
          "internalType": "string",
          "name": "",
          "type": "string"
        },
        {
          "indexed": false,
          "internalType": "uint256",
          "name": "",
          "type": "uint256"
        },
        {
          "indexed": false,
          "internalType": "string",
          "name": "",
          "type": "string"
        }
      ],
      "name": "notification",
      "type": "event"
    },
    {
      "constant": true,
      "inputs": [],
      "name": "balance",
      "outputs": [
        {
          "internalType": "uint256",
          "name": "",
          "type": "uint256"
        }
      ],
      "payable": false,
      "stateMutability": "view",
      "type": "function"
    },
    {
      "constant": false,
      "inputs": [],
      "name": "ContractInputMoney",
      "outputs": [
        {
          "internalType": "uint256",
          "name": "",
          "type": "uint256"
        }
      ],
      "payable": true,
      "stateMutability": "payable",
      "type": "function"
    },
    {
      "constant": false,
      "inputs": [
        {
          "internalType": "uint256",
          "name": "withdrawal",
          "type": "uint256"
        }
      ],
      "name": "OwnerWithdrawMoney",
      "outputs": [],
      "payable": false,
      "stateMutability": "nonpayable",
      "type": "function"
    },
    {
      "constant": false,
      "inputs": [],
      "name": "UserWithdrawMoney",
      "outputs": [],
      "payable": false,
      "stateMutability": "nonpayable",
      "type": "function"
    },
    {
      "constant": true,
      "inputs": [],
      "name": "seeEarnings",
      "outputs": [
        {
          "internalType": "uint256",
          "name": "",
          "type": "uint256"
        }
      ],
      "payable": false,
      "stateMutability": "view",
      "type": "function"
    },
    {
      "constant": true,
      "inputs": [],
      "name": "seeWin",
      "outputs": [
        {
          "internalType": "string",
          "name": "",
          "type": "string"
        }
      ],
      "payable": false,
      "stateMutability": "view",
      "type": "function"
    },
    {
      "constant": false,
      "inputs": [
        {
          "internalType": "bytes32",
          "name": "_myid",
          "type": "bytes32"
        },
        {
          "internalType": "string",
          "name": "_result",
          "type": "string"
        }
      ],
      "name": "__callback",
      "outputs": [],
      "payable": false,
      "stateMutability": "nonpayable",
      "type": "function"
    },
    {
      "constant": false,
      "inputs": [
        {
          "internalType": "bytes32",
          "name": "_queryId",
          "type": "bytes32"
        },
        {
          "internalType": "string",
          "name": "_result",
          "type": "string"
        },
        {
          "internalType": "bytes",
          "name": "_proof",
          "type": "bytes"
        }
      ],
      "name": "__callback",
      "outputs": [],
      "payable": false,
      "stateMutability": "nonpayable",
      "type": "function"
    },
    {
      "constant": false,
      "inputs": [
        {
          "internalType": "uint256",
          "name": "bet",
          "type": "uint256"
        }
      ],
      "name": "flip",
      "outputs": [],
      "payable": true,
      "stateMutability": "payable",
      "type": "function"
    }
  ],
  "bytecode": "0x6080604052336000806101000a81548173ffffffffffffffffffffffffffffffffffffffff021916908373ffffffffffffffffffffffffffffffffffffffff160217905550613071806100536000396000f3fe6080604052600436106100865760003560e01c806351a95b671161005957806351a95b671461031f5780638764c1f21461035a57806390900bca14610378578063b69ef8a81461038f578063e5cffe23146103ba57610086565b806304ffc6f91461008b578063221e885d146100b657806327dc297e146100e457806338bbfa50146101b6575b600080fd5b34801561009757600080fd5b506100a061044a565b6040518082815260200191505060405180910390f35b6100e2600480360360208110156100cc57600080fd5b8101908080359060200190929190505050610494565b005b3480156100f057600080fd5b506101b46004803603604081101561010757600080fd5b81019080803590602001909291908035906020019064010000000081111561012e57600080fd5b82018360208201111561014057600080fd5b8035906020019184600183028401116401000000008311171561016257600080fd5b91908080601f016020809104026020016040519081016040528093929190818152602001838380828437600081840152601f19601f820116905080830192505050505050509192919290505050610612565b005b3480156101c257600080fd5b5061031d600480360360608110156101d957600080fd5b81019080803590602001909291908035906020019064010000000081111561020057600080fd5b82018360208201111561021257600080fd5b8035906020019184600183028401116401000000008311171561023457600080fd5b91908080601f016020809104026020016040519081016040528093929190818152602001838380828437600081840152601f19601f8201169050808301925050505050505091929192908035906020019064010000000081111561029757600080fd5b8201836020820111156102a957600080fd5b803590602001918460018302840111640100000000831117156102cb57600080fd5b91908080601f016020809104026020016040519081016040528093929190818152602001838380828437600081840152601f19601f820116905080830192505050505050509192919290505050610655565b005b34801561032b57600080fd5b506103586004803603602081101561034257600080fd5b8101908080359060200190929190505050610c92565b005b610362610d4b565b6040518082815260200191505060405180910390f35b34801561038457600080fd5b5061038d610dd4565b005b34801561039b57600080fd5b506103a4610ebd565b6040518082815260200191505060405180910390f35b3480156103c657600080fd5b506103cf610ec3565b6040518080602001828103825283818151815260200191508051906020019080838360005b8381101561040f5780820151818401526020810190506103f4565b50505050905090810190601f16801561043c5780820380516001836020036101000a031916815260200191505b509250505060405180910390f35b6000600760003373ffffffffffffffffffffffffffffffffffffffff1673ffffffffffffffffffffffffffffffffffffffff16815260200190815260200160002060020154905090565b808034146104a157600080fd5b662386f26fc1000082101580156104c05750678ac7230489e800008211155b6104c957600080fd5b6000809050600062030d40905060006104e483600184610fa5565b90506104ee612e66565b33816000019073ffffffffffffffffffffffffffffffffffffffff16908173ffffffffffffffffffffffffffffffffffffffff168152505085816020018181525050806006600084815260200190815260200160002060008201518160000160006101000a81548173ffffffffffffffffffffffffffffffffffffffff021916908373ffffffffffffffffffffffffffffffffffffffff160217905550602082015181600101556040820151816002015560608201518160030190805190602001906105bb929190612ea4565b509050507fc4dc360d0a9c0677a3379ae0a3d81e887f761e65fdf3d7e00859d1bcd3c4738960405180806020018281038252603281526020018061300b6032913960400191505060405180910390a1505050505050565b610651828260006040519080825280601f01601f19166020018201604052801561064b5781602001600182028038833980820191505090505b50610655565b5050565b61065d611540565b73ffffffffffffffffffffffffffffffffffffffff163373ffffffffffffffffffffffffffffffffffffffff161461069457600080fd5b61069c612e66565b6006600085815260200190815260200160002060000160009054906101000a900473ffffffffffffffffffffffffffffffffffffffff16816000019073ffffffffffffffffffffffffffffffffffffffff16908173ffffffffffffffffffffffffffffffffffffffff168152505060066000858152602001908152602001600020600101548160200181815250506006600085815260200190815260200160002060000160006101000a81549073ffffffffffffffffffffffffffffffffffffffff0219169055600060066000868152602001908152602001600020600101819055506000600660008681526020019081526020016000206002018190555060076000826000015173ffffffffffffffffffffffffffffffffffffffff1673ffffffffffffffffffffffffffffffffffffffff1681526020019081526020016000206002015481604001818152505060006002846040516020018082805190602001908083835b602083106108265780518252602082019150602081019050602083039250610803565b6001836020036101000a0380198251168184511680821785525050505050509050019150506040516020818303038152906040528051906020012060001c8161086b57fe5b0690508060088190555060006008541415610a86577fa8e01c8acc8268fca1f5621e6ff82e746ac79046dc963dbec5debd3d5821a42a82600001518360200151604051808373ffffffffffffffffffffffffffffffffffffffff1673ffffffffffffffffffffffffffffffffffffffff16815260200180602001838152602001806020018381038352600a8152602001807f20686173206c6f73742000000000000000000000000000000000000000000000815250602001838103825260058152602001807f207765692100000000000000000000000000000000000000000000000000000081525060200194505050505060405180910390a1816020015160096000828254019250508190555060008260200181815250506040518060400160405280600881526020017f596f75206c6f737400000000000000000000000000000000000000000000000081525082606001819052508160076000846000015173ffffffffffffffffffffffffffffffffffffffff1673ffffffffffffffffffffffffffffffffffffffff16815260200190815260200160002060008201518160000160006101000a81548173ffffffffffffffffffffffffffffffffffffffff021916908373ffffffffffffffffffffffffffffffffffffffff16021790555060208201518160010155604082015181600201556060820151816003019080519060200190610a7d929190612ea4565b50905050610c8b565b60028260200151028260400181815101915081815250506040518060400160405280600881526020017f596f7520776f6e21000000000000000000000000000000000000000000000000815250826060018190525060008260200181815250508160076000846000015173ffffffffffffffffffffffffffffffffffffffff1673ffffffffffffffffffffffffffffffffffffffff16815260200190815260200160002060008201518160000160006101000a81548173ffffffffffffffffffffffffffffffffffffffff021916908373ffffffffffffffffffffffffffffffffffffffff16021790555060208201518160010155604082015181600201556060820151816003019080519060200190610ba1929190612ea4565b509050507fa8e01c8acc8268fca1f5621e6ff82e746ac79046dc963dbec5debd3d5821a42a82600001518360400151604051808373ffffffffffffffffffffffffffffffffffffffff1673ffffffffffffffffffffffffffffffffffffffff1681526020018060200183815260200180602001838103835260098152602001807f2068617320776f6e200000000000000000000000000000000000000000000000815250602001838103825260058152602001807f207765692100000000000000000000000000000000000000000000000000000081525060200194505050505060405180910390a15b5050505050565b6000809054906101000a900473ffffffffffffffffffffffffffffffffffffffff1673ffffffffffffffffffffffffffffffffffffffff163373ffffffffffffffffffffffffffffffffffffffff1614610ceb57600080fd5b6000819050816009600082825403925050819055503373ffffffffffffffffffffffffffffffffffffffff166108fc829081150290604051600060405180830381858888f19350505050158015610d46573d6000803e3d6000fd5b505050565b60008060009054906101000a900473ffffffffffffffffffffffffffffffffffffffff1673ffffffffffffffffffffffffffffffffffffffff163373ffffffffffffffffffffffffffffffffffffffff1614610da657600080fd5b67016345785d8a0000803414610dbb57600080fd5b3460096000828254019250508190555060095491505090565b6000600760003373ffffffffffffffffffffffffffffffffffffffff1673ffffffffffffffffffffffffffffffffffffffff168152602001908152602001600020600201549050806009600082825403925050819055506000600760003373ffffffffffffffffffffffffffffffffffffffff1673ffffffffffffffffffffffffffffffffffffffff168152602001908152602001600020600201819055503373ffffffffffffffffffffffffffffffffffffffff166108fc829081150290604051600060405180830381858888f19350505050158015610eb9573d6000803e3d6000fd5b5050565b60095481565b6060600760003373ffffffffffffffffffffffffffffffffffffffff1673ffffffffffffffffffffffffffffffffffffffff1681526020019081526020016000206003018054600181600116156101000203166002900480601f016020809104026020016040519081016040528092919081815260200182805460018160011615610100020316600290048015610f9b5780601f10610f7057610100808354040283529160200191610f9b565b820191906000526020600020905b815481529060010190602001808311610f7e57829003601f168201915b5050505050905090565b60008083118015610fb7575060208311155b610fc057600080fd5b600a84029350606060016040519080825280601f01601f191660200182016040528015610ffc5781602001600182028038833980820191505090505b5090508360f81b8160008151811061101057fe5b60200101907effffffffffffffffffffffffffffffffffffffffffffffffffffffffffffff1916908160001a905350606060206040519080825280601f01601f1916602001820160405280156110755781602001600182028038833980820191505090505b509050606060206040519080825280601f01601f1916602001820160405280156110ae5781602001600182028038833980820191505090505b50905060006110bb611860565b905060208352424118600143034018602084015260208252806020830152606060206040519080825280601f01601f19166020018201604052801561110f5781602001600182028038833980820191505090505b509050886020820152606060086040519080825280601f01601f19166020018201604052801561114e5781602001600182028038833980820191505090505b5090506111618260186008846000611b80565b5061116a612f24565b604051806080016040528087815260200188815260200186815260200184815250905060006111cf6040518060400160405280600681526020017f72616e646f6d0000000000000000000000000000000000000000000000000000815250838c611bdf565b9050606060086040519080825280601f01601f1916602001820160405280156112075781602001600182028038833980820191505090505b50905060208401517f0100000000000000000000000000000000000000000000000000000000000000810460278301537e01000000000000000000000000000000000000000000000000000000000000810460268301537d010000000000000000000000000000000000000000000000000000000000810460258301537c0100000000000000000000000000000000000000000000000000000000810460248301537b01000000000000000000000000000000000000000000000000000000810460238301537a01000000000000000000000000000000000000000000000000000081046022830153790100000000000000000000000000000000000000000000000000810460218301537801000000000000000000000000000000000000000000000000810460208301535061152d82828560016004811061134657fe5b602002015160028760006004811061135a57fe5b60200201516040518082805190602001908083835b60208310611392578051825260208201915060208101905060208303925061136f565b6001836020036101000a038019825116818451168082178552505050505050905001915050602060405180830381855afa1580156113d4573d6000803e3d6000fd5b5050506040513d60208110156113e957600080fd5b81019080805190602001909291905050508760026004811061140757fe5b60200201516040516020018085805190602001908083835b60208310611442578051825260208201915060208101905060208303925061141f565b6001836020036101000a03801982511681845116808217855250505050505090500184805190602001908083835b602083106114935780518252602082019150602081019050602083039250611470565b6001836020036101000a03801982511681845116808217855250505050505090500183815260200182805190602001908083835b602083106114ea57805182526020820191506020810190506020830392506114c7565b6001836020036101000a03801982511681845116808217855250505050505090500194505050505060405160208183030381529060405280519060200120611f4e565b8199505050505050505050509392505050565b60008073ffffffffffffffffffffffffffffffffffffffff16600260009054906101000a900473ffffffffffffffffffffffffffffffffffffffff1673ffffffffffffffffffffffffffffffffffffffff1614806115c8575060006115c6600260009054906101000a900473ffffffffffffffffffffffffffffffffffffffff16611f6a565b145b156115d9576115d76000611f75565b505b600260009054906101000a900473ffffffffffffffffffffffffffffffffffffffff1673ffffffffffffffffffffffffffffffffffffffff166338cc48316040518163ffffffff1660e01b8152600401602060405180830381600087803b15801561164357600080fd5b505af1158015611657573d6000803e3d6000fd5b505050506040513d602081101561166d57600080fd5b810190808051906020019092919050505073ffffffffffffffffffffffffffffffffffffffff16600160009054906101000a900473ffffffffffffffffffffffffffffffffffffffff1673ffffffffffffffffffffffffffffffffffffffff16146117b857600260009054906101000a900473ffffffffffffffffffffffffffffffffffffffff1673ffffffffffffffffffffffffffffffffffffffff166338cc48316040518163ffffffff1660e01b8152600401602060405180830381600087803b15801561173c57600080fd5b505af1158015611750573d6000803e3d6000fd5b505050506040513d602081101561176657600080fd5b8101908080519060200190929190505050600160006101000a81548173ffffffffffffffffffffffffffffffffffffffff021916908373ffffffffffffffffffffffffffffffffffffffff1602179055505b600160009054906101000a900473ffffffffffffffffffffffffffffffffffffffff1673ffffffffffffffffffffffffffffffffffffffff1663c281d19e6040518163ffffffff1660e01b815260040160206040518083038186803b15801561182057600080fd5b505afa158015611834573d6000803e3d6000fd5b505050506040513d602081101561184a57600080fd5b8101908080519060200190929190505050905090565b60008073ffffffffffffffffffffffffffffffffffffffff16600260009054906101000a900473ffffffffffffffffffffffffffffffffffffffff1673ffffffffffffffffffffffffffffffffffffffff1614806118e8575060006118e6600260009054906101000a900473ffffffffffffffffffffffffffffffffffffffff16611f6a565b145b156118f9576118f76000611f75565b505b600260009054906101000a900473ffffffffffffffffffffffffffffffffffffffff1673ffffffffffffffffffffffffffffffffffffffff166338cc48316040518163ffffffff1660e01b8152600401602060405180830381600087803b15801561196357600080fd5b505af1158015611977573d6000803e3d6000fd5b505050506040513d602081101561198d57600080fd5b810190808051906020019092919050505073ffffffffffffffffffffffffffffffffffffffff16600160009054906101000a900473ffffffffffffffffffffffffffffffffffffffff1673ffffffffffffffffffffffffffffffffffffffff1614611ad857600260009054906101000a900473ffffffffffffffffffffffffffffffffffffffff1673ffffffffffffffffffffffffffffffffffffffff166338cc48316040518163ffffffff1660e01b8152600401602060405180830381600087803b158015611a5c57600080fd5b505af1158015611a70573d6000803e3d6000fd5b505050506040513d6020811015611a8657600080fd5b8101908080519060200190929190505050600160006101000a81548173ffffffffffffffffffffffffffffffffffffffff021916908373ffffffffffffffffffffffffffffffffffffffff1602179055505b600160009054906101000a900473ffffffffffffffffffffffffffffffffffffffff1673ffffffffffffffffffffffffffffffffffffffff1663abaa5f3e6040518163ffffffff1660e01b815260040160206040518083038186803b158015611b4057600080fd5b505afa158015611b54573d6000803e3d6000fd5b505050506040513d6020811015611b6a57600080fd5b8101908080519060200190929190505050905090565b6060600082850190508084511015611b9757600080fd5b600086602001905060008460200190505b868860200101821015611bd05781890151808288015250602082019150602081019050611ba8565b85935050505095945050505050565b60008073ffffffffffffffffffffffffffffffffffffffff16600260009054906101000a900473ffffffffffffffffffffffffffffffffffffffff1673ffffffffffffffffffffffffffffffffffffffff161480611c6757506000611c65600260009054906101000a900473ffffffffffffffffffffffffffffffffffffffff16611f6a565b145b15611c7857611c766000611f75565b505b600260009054906101000a900473ffffffffffffffffffffffffffffffffffffffff1673ffffffffffffffffffffffffffffffffffffffff166338cc48316040518163ffffffff1660e01b8152600401602060405180830381600087803b158015611ce257600080fd5b505af1158015611cf6573d6000803e3d6000fd5b505050506040513d6020811015611d0c57600080fd5b810190808051906020019092919050505073ffffffffffffffffffffffffffffffffffffffff16600160009054906101000a900473ffffffffffffffffffffffffffffffffffffffff1673ffffffffffffffffffffffffffffffffffffffff1614611e5757600260009054906101000a900473ffffffffffffffffffffffffffffffffffffffff1673ffffffffffffffffffffffffffffffffffffffff166338cc48316040518163ffffffff1660e01b8152600401602060405180830381600087803b158015611ddb57600080fd5b505af1158015611def573d6000803e3d6000fd5b505050506040513d6020811015611e0557600080fd5b8101908080519060200190929190505050600160006101000a81548173ffffffffffffffffffffffffffffffffffffffff021916908373ffffffffffffffffffffffffffffffffffffffff1602179055505b60606004604051908082528060200260200182016040528015611e8e57816020015b6060815260200190600190039081611e795790505b50905083600060048110611e9e57fe5b602002015181600081518110611eb057fe5b602002602001018190525083600160048110611ec857fe5b602002015181600181518110611eda57fe5b602002602001018190525083600260048110611ef257fe5b602002015181600281518110611f0457fe5b602002602001018190525083600360048110611f1c57fe5b602002015181600381518110611f2e57fe5b6020026020010181905250611f44858285611f86565b9150509392505050565b8060046000848152602001908152602001600020819055505050565b6000813b9050919050565b6000611f7f6124ec565b9050919050565b60008073ffffffffffffffffffffffffffffffffffffffff16600260009054906101000a900473ffffffffffffffffffffffffffffffffffffffff1673ffffffffffffffffffffffffffffffffffffffff16148061200e5750600061200c600260009054906101000a900473ffffffffffffffffffffffffffffffffffffffff16611f6a565b145b1561201f5761201d6000611f75565b505b600260009054906101000a900473ffffffffffffffffffffffffffffffffffffffff1673ffffffffffffffffffffffffffffffffffffffff166338cc48316040518163ffffffff1660e01b8152600401602060405180830381600087803b15801561208957600080fd5b505af115801561209d573d6000803e3d6000fd5b505050506040513d60208110156120b357600080fd5b810190808051906020019092919050505073ffffffffffffffffffffffffffffffffffffffff16600160009054906101000a900473ffffffffffffffffffffffffffffffffffffffff1673ffffffffffffffffffffffffffffffffffffffff16146121fe57600260009054906101000a900473ffffffffffffffffffffffffffffffffffffffff1673ffffffffffffffffffffffffffffffffffffffff166338cc48316040518163ffffffff1660e01b8152600401602060405180830381600087803b15801561218257600080fd5b505af1158015612196573d6000803e3d6000fd5b505050506040513d60208110156121ac57600080fd5b8101908080519060200190929190505050600160006101000a81548173ffffffffffffffffffffffffffffffffffffffff021916908373ffffffffffffffffffffffffffffffffffffffff1602179055505b6000600160009054906101000a900473ffffffffffffffffffffffffffffffffffffffff1673ffffffffffffffffffffffffffffffffffffffff16632ef3accc86856040518363ffffffff1660e01b81526004018080602001838152602001828103825284818151815260200191508051906020019080838360005b8381101561229557808201518184015260208101905061227a565b50505050905090810190601f1680156122c25780820380516001836020036101000a031916815260200191505b509350505050602060405180830381600087803b1580156122e257600080fd5b505af11580156122f6573d6000803e3d6000fd5b505050506040513d602081101561230c57600080fd5b81019080805190602001909291905050509050823a02670de0b6b3a76400000181111561233f576000801b9150506124e5565b606061234a85612a43565b9050600160009054906101000a900473ffffffffffffffffffffffffffffffffffffffff1673ffffffffffffffffffffffffffffffffffffffff1663c55c1cb68360008985896040518663ffffffff1660e01b8152600401808581526020018060200180602001848152602001838103835286818151815260200191508051906020019080838360005b838110156123ef5780820151818401526020810190506123d4565b50505050905090810190601f16801561241c5780820380516001836020036101000a031916815260200191505b50838103825285818151815260200191508051906020019080838360005b8381101561245557808201518184015260208101905061243a565b50505050905090810190601f1680156124825780820380516001836020036101000a031916815260200191505b5096505050505050506020604051808303818588803b1580156124a457600080fd5b505af11580156124b8573d6000803e3d6000fd5b50505050506040513d60208110156124cf57600080fd5b8101908080519060200190929190505050925050505b9392505050565b60008061250c731d3b2638a7cc9f2cb3d298a3da7a90b67e5506ed611f6a565b11156125ae57731d3b2638a7cc9f2cb3d298a3da7a90b67e5506ed600260006101000a81548173ffffffffffffffffffffffffffffffffffffffff021916908373ffffffffffffffffffffffffffffffffffffffff1602179055506125a56040518060400160405280600b81526020017f6574685f6d61696e6e6574000000000000000000000000000000000000000000815250612ac3565b60019050612a40565b60006125cd73c03a2615d5efaf5f49f60b7bb6583eaec212fdf1611f6a565b111561266f5773c03a2615d5efaf5f49f60b7bb6583eaec212fdf1600260006101000a81548173ffffffffffffffffffffffffffffffffffffffff021916908373ffffffffffffffffffffffffffffffffffffffff1602179055506126666040518060400160405280600c81526020017f6574685f726f707374656e330000000000000000000000000000000000000000815250612ac3565b60019050612a40565b600061268e73b7a07bcf2ba2f2703b24c0691b5278999c59ac7e611f6a565b11156127305773b7a07bcf2ba2f2703b24c0691b5278999c59ac7e600260006101000a81548173ffffffffffffffffffffffffffffffffffffffff021916908373ffffffffffffffffffffffffffffffffffffffff1602179055506127276040518060400160405280600981526020017f6574685f6b6f76616e0000000000000000000000000000000000000000000000815250612ac3565b60019050612a40565b600061274f73146500cfd35b22e4a392fe0adc06de1a1368ed48611f6a565b11156127f15773146500cfd35b22e4a392fe0adc06de1a1368ed48600260006101000a81548173ffffffffffffffffffffffffffffffffffffffff021916908373ffffffffffffffffffffffffffffffffffffffff1602179055506127e86040518060400160405280600b81526020017f6574685f72696e6b656279000000000000000000000000000000000000000000815250612ac3565b60019050612a40565b600061281073a2998efd205fb9d4b4963afb70778d6354ad3a41611f6a565b11156128b25773a2998efd205fb9d4b4963afb70778d6354ad3a41600260006101000a81548173ffffffffffffffffffffffffffffffffffffffff021916908373ffffffffffffffffffffffffffffffffffffffff1602179055506128a96040518060400160405280600a81526020017f6574685f676f65726c6900000000000000000000000000000000000000000000815250612ac3565b60019050612a40565b60006128d1736f485c8bf6fc43ea212e93bbf8ce046c7f1cb475611f6a565b111561293557736f485c8bf6fc43ea212e93bbf8ce046c7f1cb475600260006101000a81548173ffffffffffffffffffffffffffffffffffffffff021916908373ffffffffffffffffffffffffffffffffffffffff16021790555060019050612a40565b60006129547320e12a1f859b3feae5fb2a0a32c18f5a65555bbf611f6a565b11156129b8577320e12a1f859b3feae5fb2a0a32c18f5a65555bbf600260006101000a81548173ffffffffffffffffffffffffffffffffffffffff021916908373ffffffffffffffffffffffffffffffffffffffff16021790555060019050612a40565b60006129d77351efaf4c8b3c9afbd5ab9f4bbc82784ab6ef8faa611f6a565b1115612a3b577351efaf4c8b3c9afbd5ab9f4bbc82784ab6ef8faa600260006101000a81548173ffffffffffffffffffffffffffffffffffffffff021916908373ffffffffffffffffffffffffffffffffffffffff16021790555060019050612a40565b600090505b90565b6060612a4d612add565b612a55612f4b565b612a6181610400612ae9565b612a6a81612b33565b60008090505b8351811015612aac57612a9f848281518110612a8857fe5b602002602001015183612b4190919063ffffffff16565b8080600101915050612a70565b50612ab681612b66565b8060000151915050919050565b8060039080519060200190612ad9929190612f65565b5050565b60405180590338823950565b6000819050600060208281612afa57fe5b0614612b135760208181612b0a57fe5b06602003810190505b808360200181815250506040518084526000815281810160405250505050565b612b3e816004612b74565b50565b612b4e8260028351612b95565b612b618183612cd590919063ffffffff16565b505050565b612b71816007612b74565b50565b612b91601f60058360ff16901b1783612d8090919063ffffffff16565b5050565b60178111612bc157612bbc8160058460ff16901b60ff161784612d8090919063ffffffff16565b612cd0565b60ff8111612c0257612be6601860058460ff16901b1784612d8090919063ffffffff16565b612bfc81600185612dc09092919063ffffffff16565b50612ccf565b61ffff8111612c4457612c28601960058460ff16901b1784612d8090919063ffffffff16565b612c3e81600285612dc09092919063ffffffff16565b50612cce565b63ffffffff8111612c8857612c6c601a60058460ff16901b1784612d8090919063ffffffff16565b612c8281600485612dc09092919063ffffffff16565b50612ccd565b67ffffffffffffffff8111612ccc57612cb4601b60058460ff16901b1784612d8090919063ffffffff16565b612cca81600885612dc09092919063ffffffff16565b505b5b5b5b5b505050565b612cdd612f4b565b82602001518360000151518351011115612d0d57612d0c836002612d0686602001518651612e27565b02612e43565b5b60008060008451905085518051602081830101945086518101825260208701935050505b60208110612d545781518352602083019250602082019150602081039050612d31565b60006001826020036101000a039050801983511681855116818117865250508694505050505092915050565b81602001516001836000015151011115612da657612da5826002846020015102612e43565b5b815180516020818301018381536001820183525050505050565b612dc8612f4b565b836020015184600001515183011115612df657612df5846002612def876020015186612e27565b02612e43565b5b60006001836101000a0390508451805184818301018684198251161781528582018352505050849150509392505050565b600081831115612e3957829050612e3d565b8190505b92915050565b606082600001519050612e568383612ae9565b612e608382612cd5565b50505050565b6040518060800160405280600073ffffffffffffffffffffffffffffffffffffffff1681526020016000815260200160008152602001606081525090565b828054600181600116156101000203166002900490600052602060002090601f016020900481019282601f10612ee557805160ff1916838001178555612f13565b82800160010185558215612f13579182015b82811115612f12578251825591602001919060010190612ef7565b5b509050612f209190612fe5565b5090565b60405180608001604052806004905b6060815260200190600190039081612f335790505090565b604051806040016040528060608152602001600081525090565b828054600181600116156101000203166002900490600052602060002090601f016020900481019282601f10612fa657805160ff1916838001178555612fd4565b82800160010185558215612fd4579182015b82811115612fd3578251825591602001919060010190612fb8565b5b509050612fe19190612fe5565b5090565b61300791905b80821115613003576000816000905550600101612feb565b5090565b9056fe50726f7661626c65207175657279207761732073656e742c207374616e64696e6720627920666f7220616e737765722e2e2ea265627a7a72315820eabeb8d7cb3278f4ed878ebdf93da536c0be57de0d93161c323afc76dd1604d264736f6c634300050c0032",
  "source": "import \"./Ownable.sol\";\r\nimport \"./provableAPI.sol\";\r\npragma solidity >= 0.5.0 < 0.6.0;\r\n\r\ncontract Coinflip is Ownable, usingProvable{\r\n\r\n    struct Better {\r\n\r\n        address payable userAddress;\r\n        uint userValue;\r\n        uint userEarnings;\r\n        string message;\r\n\r\n    }\r\n\r\n    mapping(bytes32 => Better) private waiting;\r\n    mapping(address => Better) private result;\r\n\r\n    uint256 constant NUM_RANDOM_BYTES_REQUESTED = 1;\r\n    uint256 latestNumber;\r\n    uint public balance;\r\n\r\n    event LogNewProvableQuery(string description);\r\n    event notification(address, string, uint, string);\r\n\r\n\r\n        modifier costs(uint cost){\r\n        require(msg.value == cost);\r\n        _;\r\n    }\r\n\r\n    function ContractInputMoney() public onlyOwner payable costs(100000000000000000 wei) returns(uint) {                                                                     //40 Ether for experiment temporary 0.1 Ether\r\n        balance += msg.value;\r\n        return balance;\r\n    }\r\n\r\n    function OwnerWithdrawMoney(uint withdrawal) public onlyOwner{\r\n        uint toTransfer = withdrawal;\r\n        balance -= withdrawal;\r\n        msg.sender.transfer(toTransfer);\r\n    }\r\n\r\n    function UserWithdrawMoney() public {\r\n        uint toTransfer = result[msg.sender].userEarnings;\r\n        balance -= toTransfer;\r\n        result[msg.sender].userEarnings = 0;\r\n        msg.sender.transfer(toTransfer);\r\n    }\r\n\r\n    function seeEarnings() public view returns (uint){\r\n        return (result[msg.sender].userEarnings);\r\n    }\r\n\r\n    function seeWin() public view returns(string memory){\r\n        return (result[msg.sender].message);\r\n    }\r\n\r\n\r\n    function __callback(bytes32 _queryId, string memory _result, bytes memory _proof) public{\r\n        require(msg.sender == provable_cbAddress());\r\n\r\n        //linking the waiting mapping to the result mapping\r\n        Better memory oldNewBetter;\r\n\r\n        oldNewBetter.userAddress = waiting[_queryId].userAddress;\r\n        oldNewBetter.userValue = waiting[_queryId].userValue;\r\n\r\n        //clear the waiting mapping\r\n        delete(waiting[_queryId].userAddress);\r\n        waiting[_queryId].userValue = 0;\r\n        waiting[_queryId].userEarnings = 0;\r\n\r\n        //fetching users past earnings\r\n\r\n        oldNewBetter.userEarnings = result[oldNewBetter.userAddress].userEarnings;\r\n\r\n        uint256 randomNumber = uint256(keccak256(abi.encodePacked(_result))) % 2;\r\n        latestNumber = randomNumber;\r\n\r\n        if (latestNumber == 0){\r\n            emit notification(oldNewBetter.userAddress, \" has lost \", oldNewBetter.userValue, \" wei!\");\r\n            balance += oldNewBetter.userValue;\r\n            oldNewBetter.userValue = 0;\r\n            oldNewBetter.message = \"You lost\";\r\n            result[oldNewBetter.userAddress] = oldNewBetter;\r\n        }\r\n\r\n        else {\r\n            oldNewBetter.userEarnings += oldNewBetter.userValue*2;\r\n            oldNewBetter.message = \"You won!\";\r\n            oldNewBetter.userValue = 0;\r\n            result[oldNewBetter.userAddress] = oldNewBetter;\r\n            emit notification(oldNewBetter.userAddress, \" has won \", oldNewBetter.userEarnings, \" wei!\");\r\n        }\r\n    }\r\n\r\n\r\n\r\n\r\n    function flip(uint bet) public payable costs(bet){\r\n        require(bet>=10000000000000000 && bet <= 10000000000000000000);\r\n\r\n        uint256 QUERY_EXECUTION_DELAY = 0;\r\n        uint256 GAS_FOR_CALLBACK = 200000;\r\n        bytes32 queryId = provable_newRandomDSQuery(\r\n            QUERY_EXECUTION_DELAY,\r\n            NUM_RANDOM_BYTES_REQUESTED,\r\n            GAS_FOR_CALLBACK\r\n            );\r\n\r\n        Better memory newBetter;\r\n\r\n        newBetter.userAddress = msg.sender;\r\n        newBetter.userValue = bet;\r\n\r\n        waiting[queryId] = newBetter;\r\n\r\n        emit LogNewProvableQuery(\"Provable query was sent, standing by for answer...\");\r\n    }\r\n\r\n}\r\n",
  "sourcePath": "C:/Users/Anwender/Desktop/Code/ethereum course advanced/Coinproject/contracts/Coinflip.sol",
  "compiler": {
    "name": "solc",
    "version": "0.5.12+commit.7709ece9.Emscripten.clang"
  },
  "schemaVersion": "3.0.16",
  "updatedAt": "2020-03-05T21:40:28.596Z",
  "devdoc": {
    "methods": {
      "__callback(bytes32,string)": {
        "details": "The following `__callback` functions are just placeholders ideally     meant to be defined in child contract when proofs are used.     The function bodies simply silence compiler warnings."
      }
    }
  },
  "userdoc": {
    "methods": {}
  }
}